{
  "_format": "hh-sol-artifact-1",
  "contractName": "LandNFT",
  "sourceName": "contracts/Land.sol",
  "abi": [
    {
      "inputs": [],
      "stateMutability": "nonpayable",
      "type": "constructor"
    },
    {
      "anonymous": false,
      "inputs": [
        {
          "indexed": true,
          "internalType": "address",
          "name": "owner",
          "type": "address"
        },
        {
          "indexed": true,
          "internalType": "address",
          "name": "approved",
          "type": "address"
        },
        {
          "indexed": true,
          "internalType": "uint256",
          "name": "tokenId",
          "type": "uint256"
        }
      ],
      "name": "Approval",
      "type": "event"
    },
    {
      "anonymous": false,
      "inputs": [
        {
          "indexed": true,
          "internalType": "address",
          "name": "owner",
          "type": "address"
        },
        {
          "indexed": true,
          "internalType": "address",
          "name": "operator",
          "type": "address"
        },
        {
          "indexed": false,
          "internalType": "bool",
          "name": "approved",
          "type": "bool"
        }
      ],
      "name": "ApprovalForAll",
      "type": "event"
    },
    {
      "anonymous": false,
      "inputs": [
        {
          "indexed": true,
          "internalType": "address",
          "name": "previousOwner",
          "type": "address"
        },
        {
          "indexed": true,
          "internalType": "address",
          "name": "newOwner",
          "type": "address"
        }
      ],
      "name": "OwnershipTransferred",
      "type": "event"
    },
    {
      "anonymous": false,
      "inputs": [
        {
          "indexed": true,
          "internalType": "address",
          "name": "from",
          "type": "address"
        },
        {
          "indexed": true,
          "internalType": "address",
          "name": "to",
          "type": "address"
        },
        {
          "indexed": true,
          "internalType": "uint256",
          "name": "tokenId",
          "type": "uint256"
        }
      ],
      "name": "Transfer",
      "type": "event"
    },
    {
      "inputs": [
        {
          "internalType": "address",
          "name": "to",
          "type": "address"
        },
        {
          "internalType": "uint256",
          "name": "tokenId",
          "type": "uint256"
        }
      ],
      "name": "approve",
      "outputs": [],
      "stateMutability": "nonpayable",
      "type": "function"
    },
    {
      "inputs": [
        {
          "internalType": "address",
          "name": "owner",
          "type": "address"
        }
      ],
      "name": "balanceOf",
      "outputs": [
        {
          "internalType": "uint256",
          "name": "",
          "type": "uint256"
        }
      ],
      "stateMutability": "view",
      "type": "function"
    },
    {
      "inputs": [
        {
          "internalType": "uint256",
          "name": "tokenId",
          "type": "uint256"
        }
      ],
      "name": "buyLand",
      "outputs": [],
      "stateMutability": "payable",
      "type": "function"
    },
    {
      "inputs": [
        {
          "internalType": "uint256",
          "name": "tokenId",
          "type": "uint256"
        }
      ],
      "name": "getApproved",
      "outputs": [
        {
          "internalType": "address",
          "name": "",
          "type": "address"
        }
      ],
      "stateMutability": "view",
      "type": "function"
    },
    {
      "inputs": [
        {
          "internalType": "uint256",
          "name": "tokenId",
          "type": "uint256"
        }
      ],
      "name": "getLand",
      "outputs": [
        {
          "components": [
            {
              "internalType": "uint256",
              "name": "tokenId",
              "type": "uint256"
            },
            {
              "internalType": "address payable",
              "name": "seller",
              "type": "address"
            },
            {
              "internalType": "address payable",
              "name": "owner",
              "type": "address"
            },
            {
              "internalType": "uint256",
              "name": "price",
              "type": "uint256"
            },
            {
              "internalType": "bool",
              "name": "sold",
              "type": "bool"
            }
          ],
          "internalType": "struct LandNFT.Land",
          "name": "",
          "type": "tuple"
        }
      ],
      "stateMutability": "view",
      "type": "function"
    },
    {
      "inputs": [],
      "name": "getLandLength",
      "outputs": [
        {
          "internalType": "uint256",
          "name": "",
          "type": "uint256"
        }
      ],
      "stateMutability": "view",
      "type": "function"
    },
    {
      "inputs": [
        {
          "internalType": "address",
          "name": "owner",
          "type": "address"
        },
        {
          "internalType": "address",
          "name": "operator",
          "type": "address"
        }
      ],
      "name": "isApprovedForAll",
      "outputs": [
        {
          "internalType": "bool",
          "name": "",
          "type": "bool"
        }
      ],
      "stateMutability": "view",
      "type": "function"
    },
    {
      "inputs": [],
      "name": "name",
      "outputs": [
        {
          "internalType": "string",
          "name": "",
          "type": "string"
        }
      ],
      "stateMutability": "view",
      "type": "function"
    },
    {
      "inputs": [],
      "name": "owner",
      "outputs": [
        {
          "internalType": "address",
          "name": "",
          "type": "address"
        }
      ],
      "stateMutability": "view",
      "type": "function"
    },
    {
      "inputs": [
        {
          "internalType": "uint256",
          "name": "tokenId",
          "type": "uint256"
        }
      ],
      "name": "ownerOf",
      "outputs": [
        {
          "internalType": "address",
          "name": "",
          "type": "address"
        }
      ],
      "stateMutability": "view",
      "type": "function"
    },
    {
      "inputs": [],
      "name": "renounceOwnership",
      "outputs": [],
      "stateMutability": "nonpayable",
      "type": "function"
    },
    {
      "inputs": [
        {
          "internalType": "string",
          "name": "uri",
          "type": "string"
        },
        {
          "internalType": "uint256",
          "name": "price",
          "type": "uint256"
        }
      ],
      "name": "safeMint",
      "outputs": [
        {
          "internalType": "uint256",
          "name": "",
          "type": "uint256"
        }
      ],
      "stateMutability": "payable",
      "type": "function"
    },
    {
      "inputs": [
        {
          "internalType": "address",
          "name": "from",
          "type": "address"
        },
        {
          "internalType": "address",
          "name": "to",
          "type": "address"
        },
        {
          "internalType": "uint256",
          "name": "tokenId",
          "type": "uint256"
        }
      ],
      "name": "safeTransferFrom",
      "outputs": [],
      "stateMutability": "nonpayable",
      "type": "function"
    },
    {
      "inputs": [
        {
          "internalType": "address",
          "name": "from",
          "type": "address"
        },
        {
          "internalType": "address",
          "name": "to",
          "type": "address"
        },
        {
          "internalType": "uint256",
          "name": "tokenId",
          "type": "uint256"
        },
        {
          "internalType": "bytes",
          "name": "_data",
          "type": "bytes"
        }
      ],
      "name": "safeTransferFrom",
      "outputs": [],
      "stateMutability": "nonpayable",
      "type": "function"
    },
    {
      "inputs": [
        {
          "internalType": "uint256",
          "name": "tokenId",
          "type": "uint256"
        }
      ],
      "name": "sellLand",
      "outputs": [],
      "stateMutability": "payable",
      "type": "function"
    },
    {
      "inputs": [
        {
          "internalType": "address",
          "name": "operator",
          "type": "address"
        },
        {
          "internalType": "bool",
          "name": "approved",
          "type": "bool"
        }
      ],
      "name": "setApprovalForAll",
      "outputs": [],
      "stateMutability": "nonpayable",
      "type": "function"
    },
    {
      "inputs": [
        {
          "internalType": "bytes4",
          "name": "interfaceId",
          "type": "bytes4"
        }
      ],
      "name": "supportsInterface",
      "outputs": [
        {
          "internalType": "bool",
          "name": "",
          "type": "bool"
        }
      ],
      "stateMutability": "view",
      "type": "function"
    },
    {
      "inputs": [],
      "name": "symbol",
      "outputs": [
        {
          "internalType": "string",
          "name": "",
          "type": "string"
        }
      ],
      "stateMutability": "view",
      "type": "function"
    },
    {
      "inputs": [
        {
          "internalType": "uint256",
          "name": "index",
          "type": "uint256"
        }
      ],
      "name": "tokenByIndex",
      "outputs": [
        {
          "internalType": "uint256",
          "name": "",
          "type": "uint256"
        }
      ],
      "stateMutability": "view",
      "type": "function"
    },
    {
      "inputs": [
        {
          "internalType": "address",
          "name": "owner",
          "type": "address"
        },
        {
          "internalType": "uint256",
          "name": "index",
          "type": "uint256"
        }
      ],
      "name": "tokenOfOwnerByIndex",
      "outputs": [
        {
          "internalType": "uint256",
          "name": "",
          "type": "uint256"
        }
      ],
      "stateMutability": "view",
      "type": "function"
    },
    {
      "inputs": [
        {
          "internalType": "uint256",
          "name": "tokenId",
          "type": "uint256"
        }
      ],
      "name": "tokenURI",
      "outputs": [
        {
          "internalType": "string",
          "name": "",
          "type": "string"
        }
      ],
      "stateMutability": "view",
      "type": "function"
    },
    {
      "inputs": [],
      "name": "totalSupply",
      "outputs": [
        {
          "internalType": "uint256",
          "name": "",
          "type": "uint256"
        }
      ],
      "stateMutability": "view",
      "type": "function"
    },
    {
      "inputs": [
        {
          "internalType": "address",
          "name": "from",
          "type": "address"
        },
        {
          "internalType": "address",
          "name": "to",
          "type": "address"
        },
        {
          "internalType": "uint256",
          "name": "tokenId",
          "type": "uint256"
        }
      ],
      "name": "transferFrom",
      "outputs": [],
      "stateMutability": "nonpayable",
      "type": "function"
    },
    {
      "inputs": [
        {
          "internalType": "address",
          "name": "newOwner",
          "type": "address"
        }
      ],
      "name": "transferOwnership",
      "outputs": [],
      "stateMutability": "nonpayable",
      "type": "function"
    },
    {
      "inputs": [
        {
          "internalType": "uint256",
          "name": "tokenId",
          "type": "uint256"
        }
      ],
      "name": "unSellLand",
      "outputs": [],
      "stateMutability": "payable",
      "type": "function"
    }
  ],
  "bytecode": "0x60806040526000600d553480156200001657600080fd5b506040518060400160405280600681526020017f4c616e64657200000000000000000000000000000000000000000000000000008152506040518060400160405280600481526020017f4c414e440000000000000000000000000000000000000000000000000000000081525081600090805190602001906200009b929190620001ab565b508060019080519060200190620000b4929190620001ab565b505050620000d7620000cb620000dd60201b60201c565b620000e560201b60201c565b620002c0565b600033905090565b6000600b60009054906101000a900473ffffffffffffffffffffffffffffffffffffffff16905081600b60006101000a81548173ffffffffffffffffffffffffffffffffffffffff021916908373ffffffffffffffffffffffffffffffffffffffff1602179055508173ffffffffffffffffffffffffffffffffffffffff168173ffffffffffffffffffffffffffffffffffffffff167f8be0079c531659141344cd1fd0a4f28419497f9722a3daafe3b4186f6b6457e060405160405180910390a35050565b828054620001b9906200025b565b90600052602060002090601f016020900481019282620001dd576000855562000229565b82601f10620001f857805160ff191683800117855562000229565b8280016001018555821562000229579182015b82811115620002285782518255916020019190600101906200020b565b5b5090506200023891906200023c565b5090565b5b80821115620002575760008160009055506001016200023d565b5090565b600060028204905060018216806200027457607f821691505b602082108114156200028b576200028a62000291565b5b50919050565b7f4e487b7100000000000000000000000000000000000000000000000000000000600052602260045260246000fd5b61444180620002d06000396000f3fe6080604052600436106101665760003560e01c806370a08231116100d1578063b88d4fde1161008a578063d2f37beb11610064578063d2f37beb1461052a578063e985e9c514610555578063f02dd53f14610592578063f2fde38b146105cf57610166565b8063b88d4fde146104a8578063c87b56dd146104d1578063ced395581461050e57610166565b806370a08231146103b9578063715018a6146103f65780638da5cb5b1461040d57806394a524981461043857806395d89b4114610454578063a22cb4651461047f57610166565b80632418b8b1116101235780632418b8b11461028d5780632f745c59146102a957806342842e0e146102e657806346b145e11461030f5780634f6ccce71461033f5780636352211e1461037c57610166565b806301ffc9a71461016b57806306fdde03146101a8578063081812fc146101d3578063095ea7b31461021057806318160ddd1461023957806323b872dd14610264575b600080fd5b34801561017757600080fd5b50610192600480360381019061018d9190613026565b6105f8565b60405161019f919061360a565b60405180910390f35b3480156101b457600080fd5b506101bd61060a565b6040516101ca9190613625565b60405180910390f35b3480156101df57600080fd5b506101fa60048036038101906101f591906130cc565b61069c565b60405161020791906135a3565b60405180910390f35b34801561021c57600080fd5b5061023760048036038101906102329190612fea565b610721565b005b34801561024557600080fd5b5061024e610839565b60405161025b9190613942565b60405180910390f35b34801561027057600080fd5b5061028b60048036038101906102869190612ee4565b610846565b005b6102a760048036038101906102a291906130cc565b6108a6565b005b3480156102b557600080fd5b506102d060048036038101906102cb9190612fea565b610a31565b6040516102dd9190613942565b60405180910390f35b3480156102f257600080fd5b5061030d60048036038101906103089190612ee4565b610ad6565b005b61032960048036038101906103249190613078565b610af6565b6040516103369190613942565b60405180910390f35b34801561034b57600080fd5b50610366600480360381019061036191906130cc565b610b37565b6040516103739190613942565b60405180910390f35b34801561038857600080fd5b506103a3600480360381019061039e91906130cc565b610bce565b6040516103b091906135a3565b60405180910390f35b3480156103c557600080fd5b506103e060048036038101906103db9190612e7f565b610c80565b6040516103ed9190613942565b60405180910390f35b34801561040257600080fd5b5061040b610d38565b005b34801561041957600080fd5b50610422610dc0565b60405161042f91906135a3565b60405180910390f35b610452600480360381019061044d91906130cc565b610dea565b005b34801561046057600080fd5b50610469610f76565b6040516104769190613625565b60405180910390f35b34801561048b57600080fd5b506104a660048036038101906104a19190612fae565b611008565b005b3480156104b457600080fd5b506104cf60048036038101906104ca9190612f33565b61101e565b005b3480156104dd57600080fd5b506104f860048036038101906104f391906130cc565b611080565b6040516105059190613625565b60405180910390f35b610528600480360381019061052391906130cc565b611092565b005b34801561053657600080fd5b5061053f61125c565b60405161054c9190613942565b60405180910390f35b34801561056157600080fd5b5061057c60048036038101906105779190612ea8565b61126d565b604051610589919061360a565b60405180910390f35b34801561059e57600080fd5b506105b960048036038101906105b491906130cc565b611301565b6040516105c69190613927565b60405180910390f35b3480156105db57600080fd5b506105f660048036038101906105f19190612e7f565b611409565b005b600061060382611501565b9050919050565b60606000805461061990613baa565b80601f016020809104026020016040519081016040528092919081815260200182805461064590613baa565b80156106925780601f1061066757610100808354040283529160200191610692565b820191906000526020600020905b81548152906001019060200180831161067557829003601f168201915b5050505050905090565b60006106a78261157b565b6106e6576040517f08c379a00000000000000000000000000000000000000000000000000000000081526004016106dd90613827565b60405180910390fd5b6004600083815260200190815260200160002060009054906101000a900473ffffffffffffffffffffffffffffffffffffffff169050919050565b600061072c82610bce565b90508073ffffffffffffffffffffffffffffffffffffffff168373ffffffffffffffffffffffffffffffffffffffff16141561079d576040517f08c379a000000000000000000000000000000000000000000000000000000000815260040161079490613887565b60405180910390fd5b8073ffffffffffffffffffffffffffffffffffffffff166107bc6115e7565b73ffffffffffffffffffffffffffffffffffffffff1614806107eb57506107ea816107e56115e7565b61126d565b5b61082a576040517f08c379a000000000000000000000000000000000000000000000000000000000815260040161082190613747565b60405180910390fd5b61083483836115ef565b505050565b6000600880549050905090565b6108576108516115e7565b826116a8565b610896576040517f08c379a000000000000000000000000000000000000000000000000000000000815260040161088d906138a7565b60405180910390fd5b6108a1838383611786565b505050565b3373ffffffffffffffffffffffffffffffffffffffff16600e600083815260200190815260200160002060020160009054906101000a900473ffffffffffffffffffffffffffffffffffffffff1673ffffffffffffffffffffffffffffffffffffffff161461094a576040517f08c379a000000000000000000000000000000000000000000000000000000000815260040161094190613807565b60405180910390fd5b6000600e600083815260200190815260200160002060040160006101000a81548160ff02191690831515021790555033600e600083815260200190815260200160002060010160006101000a81548173ffffffffffffffffffffffffffffffffffffffff021916908373ffffffffffffffffffffffffffffffffffffffff16021790555030600e600083815260200190815260200160002060020160006101000a81548173ffffffffffffffffffffffffffffffffffffffff021916908373ffffffffffffffffffffffffffffffffffffffff160217905550610a2e333083611786565b50565b6000610a3c83610c80565b8210610a7d576040517f08c379a0000000000000000000000000000000000000000000000000000000008152600401610a7490613647565b60405180910390fd5b600660008473ffffffffffffffffffffffffffffffffffffffff1673ffffffffffffffffffffffffffffffffffffffff168152602001908152602001600020600083815260200190815260200160002054905092915050565b610af18383836040518060200160405280600081525061101e565b505050565b600080610b03600c6119ed565b9050610b0f600c6119fb565b610b193382611a11565b610b238185611a2f565b610b2d8184611aa3565b8091505092915050565b6000610b41610839565b8210610b82576040517f08c379a0000000000000000000000000000000000000000000000000000000008152600401610b79906138c7565b60405180910390fd5b60088281548110610bbc577f4e487b7100000000000000000000000000000000000000000000000000000000600052603260045260246000fd5b90600052602060002001549050919050565b6000806002600084815260200190815260200160002060009054906101000a900473ffffffffffffffffffffffffffffffffffffffff169050600073ffffffffffffffffffffffffffffffffffffffff168173ffffffffffffffffffffffffffffffffffffffff161415610c77576040517f08c379a0000000000000000000000000000000000000000000000000000000008152600401610c6e90613787565b60405180910390fd5b80915050919050565b60008073ffffffffffffffffffffffffffffffffffffffff168273ffffffffffffffffffffffffffffffffffffffff161415610cf1576040517f08c379a0000000000000000000000000000000000000000000000000000000008152600401610ce890613767565b60405180910390fd5b600360008373ffffffffffffffffffffffffffffffffffffffff1673ffffffffffffffffffffffffffffffffffffffff168152602001908152602001600020549050919050565b610d406115e7565b73ffffffffffffffffffffffffffffffffffffffff16610d5e610dc0565b73ffffffffffffffffffffffffffffffffffffffff1614610db4576040517f08c379a0000000000000000000000000000000000000000000000000000000008152600401610dab90613847565b60405180910390fd5b610dbe6000611c19565b565b6000600b60009054906101000a900473ffffffffffffffffffffffffffffffffffffffff16905090565b3373ffffffffffffffffffffffffffffffffffffffff16600e600083815260200190815260200160002060010160009054906101000a900473ffffffffffffffffffffffffffffffffffffffff1673ffffffffffffffffffffffffffffffffffffffff1614610e8e576040517f08c379a0000000000000000000000000000000000000000000000000000000008152600401610e8590613807565b60405180910390fd5b33600e600083815260200190815260200160002060020160006101000a81548173ffffffffffffffffffffffffffffffffffffffff021916908373ffffffffffffffffffffffffffffffffffffffff1602179055506001600e600083815260200190815260200160002060040160006101000a81548160ff0219169083151502179055506000600e600083815260200190815260200160002060010160006101000a81548173ffffffffffffffffffffffffffffffffffffffff021916908373ffffffffffffffffffffffffffffffffffffffff160217905550610f73303383611786565b50565b606060018054610f8590613baa565b80601f0160208091040260200160405190810160405280929190818152602001828054610fb190613baa565b8015610ffe5780601f10610fd357610100808354040283529160200191610ffe565b820191906000526020600020905b815481529060010190602001808311610fe157829003601f168201915b5050505050905090565b61101a6110136115e7565b8383611cdf565b5050565b61102f6110296115e7565b836116a8565b61106e576040517f08c379a0000000000000000000000000000000000000000000000000000000008152600401611065906138a7565b60405180910390fd5b61107a84848484611e4c565b50505050565b606061108b82611ea8565b9050919050565b6000600e60008381526020019081526020016000206003015490506000600e600084815260200190815260200160002060010160009054906101000a900473ffffffffffffffffffffffffffffffffffffffff1690508134101561112b576040517f08c379a000000000000000000000000000000000000000000000000000000000815260040161112290613907565b60405180910390fd5b33600e600085815260200190815260200160002060020160006101000a81548173ffffffffffffffffffffffffffffffffffffffff021916908373ffffffffffffffffffffffffffffffffffffffff1602179055506001600e600085815260200190815260200160002060040160006101000a81548160ff0219169083151502179055506000600e600085815260200190815260200160002060010160006101000a81548173ffffffffffffffffffffffffffffffffffffffff021916908373ffffffffffffffffffffffffffffffffffffffff160217905550611210303385611786565b8073ffffffffffffffffffffffffffffffffffffffff166108fc349081150290604051600060405180830381858888f19350505050158015611256573d6000803e3d6000fd5b50505050565b6000611268600c6119ed565b905090565b6000600560008473ffffffffffffffffffffffffffffffffffffffff1673ffffffffffffffffffffffffffffffffffffffff16815260200190815260200160002060008373ffffffffffffffffffffffffffffffffffffffff1673ffffffffffffffffffffffffffffffffffffffff16815260200190815260200160002060009054906101000a900460ff16905092915050565b611309612c46565b600e60008381526020019081526020016000206040518060a0016040529081600082015481526020016001820160009054906101000a900473ffffffffffffffffffffffffffffffffffffffff1673ffffffffffffffffffffffffffffffffffffffff1673ffffffffffffffffffffffffffffffffffffffff1681526020016002820160009054906101000a900473ffffffffffffffffffffffffffffffffffffffff1673ffffffffffffffffffffffffffffffffffffffff1673ffffffffffffffffffffffffffffffffffffffff168152602001600382015481526020016004820160009054906101000a900460ff1615151515815250509050919050565b6114116115e7565b73ffffffffffffffffffffffffffffffffffffffff1661142f610dc0565b73ffffffffffffffffffffffffffffffffffffffff1614611485576040517f08c379a000000000000000000000000000000000000000000000000000000000815260040161147c90613847565b60405180910390fd5b600073ffffffffffffffffffffffffffffffffffffffff168173ffffffffffffffffffffffffffffffffffffffff1614156114f5576040517f08c379a00000000000000000000000000000000000000000000000000000000081526004016114ec90613687565b60405180910390fd5b6114fe81611c19565b50565b60007f780e9d63000000000000000000000000000000000000000000000000000000007bffffffffffffffffffffffffffffffffffffffffffffffffffffffff1916827bffffffffffffffffffffffffffffffffffffffffffffffffffffffff19161480611574575061157382611ffa565b5b9050919050565b60008073ffffffffffffffffffffffffffffffffffffffff166002600084815260200190815260200160002060009054906101000a900473ffffffffffffffffffffffffffffffffffffffff1673ffffffffffffffffffffffffffffffffffffffff1614159050919050565b600033905090565b816004600083815260200190815260200160002060006101000a81548173ffffffffffffffffffffffffffffffffffffffff021916908373ffffffffffffffffffffffffffffffffffffffff160217905550808273ffffffffffffffffffffffffffffffffffffffff1661166283610bce565b73ffffffffffffffffffffffffffffffffffffffff167f8c5be1e5ebec7d5bd14f71427d1e84f3dd0314c0f7b2291e5b200ac8c7c3b92560405160405180910390a45050565b60006116b38261157b565b6116f2576040517f08c379a00000000000000000000000000000000000000000000000000000000081526004016116e990613727565b60405180910390fd5b60006116fd83610bce565b90508073ffffffffffffffffffffffffffffffffffffffff168473ffffffffffffffffffffffffffffffffffffffff16148061173f575061173e818561126d565b5b8061177d57508373ffffffffffffffffffffffffffffffffffffffff166117658461069c565b73ffffffffffffffffffffffffffffffffffffffff16145b91505092915050565b8273ffffffffffffffffffffffffffffffffffffffff166117a682610bce565b73ffffffffffffffffffffffffffffffffffffffff16146117fc576040517f08c379a00000000000000000000000000000000000000000000000000000000081526004016117f3906136a7565b60405180910390fd5b600073ffffffffffffffffffffffffffffffffffffffff168273ffffffffffffffffffffffffffffffffffffffff16141561186c576040517f08c379a0000000000000000000000000000000000000000000000000000000008152600401611863906136e7565b60405180910390fd5b6118778383836120dc565b6118826000826115ef565b6001600360008573ffffffffffffffffffffffffffffffffffffffff1673ffffffffffffffffffffffffffffffffffffffff16815260200190815260200160002060008282546118d29190613aae565b925050819055506001600360008473ffffffffffffffffffffffffffffffffffffffff1673ffffffffffffffffffffffffffffffffffffffff16815260200190815260200160002060008282546119299190613a27565b92505081905550816002600083815260200190815260200160002060006101000a81548173ffffffffffffffffffffffffffffffffffffffff021916908373ffffffffffffffffffffffffffffffffffffffff160217905550808273ffffffffffffffffffffffffffffffffffffffff168473ffffffffffffffffffffffffffffffffffffffff167fddf252ad1be2c89b69c2b068fc378daa952ba7f163c4a11628f55a4df523b3ef60405160405180910390a46119e88383836120ec565b505050565b600081600001549050919050565b6001816000016000828254019250508190555050565b611a2b8282604051806020016040528060008152506120f1565b5050565b611a388261157b565b611a77576040517f08c379a0000000000000000000000000000000000000000000000000000000008152600401611a6e906137a7565b60405180910390fd5b80600a60008481526020019081526020016000209080519060200190611a9e929190612ca3565b505050565b60008111611ae6576040517f08c379a0000000000000000000000000000000000000000000000000000000008152600401611add906138e7565b60405180910390fd5b6040518060a00160405280838152602001600073ffffffffffffffffffffffffffffffffffffffff1681526020013373ffffffffffffffffffffffffffffffffffffffff16815260200182815260200160001515815250600e60008481526020019081526020016000206000820151816000015560208201518160010160006101000a81548173ffffffffffffffffffffffffffffffffffffffff021916908373ffffffffffffffffffffffffffffffffffffffff16021790555060408201518160020160006101000a81548173ffffffffffffffffffffffffffffffffffffffff021916908373ffffffffffffffffffffffffffffffffffffffff1602179055506060820151816003015560808201518160040160006101000a81548160ff0219169083151502179055509050505050565b6000600b60009054906101000a900473ffffffffffffffffffffffffffffffffffffffff16905081600b60006101000a81548173ffffffffffffffffffffffffffffffffffffffff021916908373ffffffffffffffffffffffffffffffffffffffff1602179055508173ffffffffffffffffffffffffffffffffffffffff168173ffffffffffffffffffffffffffffffffffffffff167f8be0079c531659141344cd1fd0a4f28419497f9722a3daafe3b4186f6b6457e060405160405180910390a35050565b8173ffffffffffffffffffffffffffffffffffffffff168373ffffffffffffffffffffffffffffffffffffffff161415611d4e576040517f08c379a0000000000000000000000000000000000000000000000000000000008152600401611d4590613707565b60405180910390fd5b80600560008573ffffffffffffffffffffffffffffffffffffffff1673ffffffffffffffffffffffffffffffffffffffff16815260200190815260200160002060008473ffffffffffffffffffffffffffffffffffffffff1673ffffffffffffffffffffffffffffffffffffffff16815260200190815260200160002060006101000a81548160ff0219169083151502179055508173ffffffffffffffffffffffffffffffffffffffff168373ffffffffffffffffffffffffffffffffffffffff167f17307eab39ab6107e8899845ad3d59bd9653f200f220920489ca2b5937696c3183604051611e3f919061360a565b60405180910390a3505050565b611e57848484611786565b611e638484848461214c565b611ea2576040517f08c379a0000000000000000000000000000000000000000000000000000000008152600401611e9990613667565b60405180910390fd5b50505050565b6060611eb38261157b565b611ef2576040517f08c379a0000000000000000000000000000000000000000000000000000000008152600401611ee9906137e7565b60405180910390fd5b6000600a60008481526020019081526020016000208054611f1290613baa565b80601f0160208091040260200160405190810160405280929190818152602001828054611f3e90613baa565b8015611f8b5780601f10611f6057610100808354040283529160200191611f8b565b820191906000526020600020905b815481529060010190602001808311611f6e57829003601f168201915b505050505090506000611f9c6122e3565b9050600081511415611fb2578192505050611ff5565b600082511115611fe7578082604051602001611fcf92919061357f565b60405160208183030381529060405292505050611ff5565b611ff0846122fa565b925050505b919050565b60007f80ac58cd000000000000000000000000000000000000000000000000000000007bffffffffffffffffffffffffffffffffffffffffffffffffffffffff1916827bffffffffffffffffffffffffffffffffffffffffffffffffffffffff191614806120c557507f5b5e139f000000000000000000000000000000000000000000000000000000007bffffffffffffffffffffffffffffffffffffffffffffffffffffffff1916827bffffffffffffffffffffffffffffffffffffffffffffffffffffffff1916145b806120d557506120d4826123a1565b5b9050919050565b6120e783838361240b565b505050565b505050565b6120fb838361251f565b612108600084848461214c565b612147576040517f08c379a000000000000000000000000000000000000000000000000000000000815260040161213e90613667565b60405180910390fd5b505050565b600061216d8473ffffffffffffffffffffffffffffffffffffffff166126f9565b156122d6578373ffffffffffffffffffffffffffffffffffffffff1663150b7a026121966115e7565b8786866040518563ffffffff1660e01b81526004016121b894939291906135be565b602060405180830381600087803b1580156121d257600080fd5b505af192505050801561220357506040513d601f19601f82011682018060405250810190612200919061304f565b60015b612286573d8060008114612233576040519150601f19603f3d011682016040523d82523d6000602084013e612238565b606091505b5060008151141561227e576040517f08c379a000000000000000000000000000000000000000000000000000000000815260040161227590613667565b60405180910390fd5b805181602001fd5b63150b7a0260e01b7bffffffffffffffffffffffffffffffffffffffffffffffffffffffff1916817bffffffffffffffffffffffffffffffffffffffffffffffffffffffff1916149150506122db565b600190505b949350505050565b606060405180602001604052806000815250905090565b60606123058261157b565b612344576040517f08c379a000000000000000000000000000000000000000000000000000000000815260040161233b90613867565b60405180910390fd5b600061234e6122e3565b9050600081511161236e5760405180602001604052806000815250612399565b806123788461271c565b60405160200161238992919061357f565b6040516020818303038152906040525b915050919050565b60007f01ffc9a7000000000000000000000000000000000000000000000000000000007bffffffffffffffffffffffffffffffffffffffffffffffffffffffff1916827bffffffffffffffffffffffffffffffffffffffffffffffffffffffff1916149050919050565b6124168383836128c9565b600073ffffffffffffffffffffffffffffffffffffffff168373ffffffffffffffffffffffffffffffffffffffff16141561245957612454816128ce565b612498565b8173ffffffffffffffffffffffffffffffffffffffff168373ffffffffffffffffffffffffffffffffffffffff1614612497576124968382612917565b5b5b600073ffffffffffffffffffffffffffffffffffffffff168273ffffffffffffffffffffffffffffffffffffffff1614156124db576124d681612a84565b61251a565b8273ffffffffffffffffffffffffffffffffffffffff168273ffffffffffffffffffffffffffffffffffffffff1614612519576125188282612bc7565b5b5b505050565b600073ffffffffffffffffffffffffffffffffffffffff168273ffffffffffffffffffffffffffffffffffffffff16141561258f576040517f08c379a0000000000000000000000000000000000000000000000000000000008152600401612586906137c7565b60405180910390fd5b6125988161157b565b156125d8576040517f08c379a00000000000000000000000000000000000000000000000000000000081526004016125cf906136c7565b60405180910390fd5b6125e4600083836120dc565b6001600360008473ffffffffffffffffffffffffffffffffffffffff1673ffffffffffffffffffffffffffffffffffffffff16815260200190815260200160002060008282546126349190613a27565b92505081905550816002600083815260200190815260200160002060006101000a81548173ffffffffffffffffffffffffffffffffffffffff021916908373ffffffffffffffffffffffffffffffffffffffff160217905550808273ffffffffffffffffffffffffffffffffffffffff16600073ffffffffffffffffffffffffffffffffffffffff167fddf252ad1be2c89b69c2b068fc378daa952ba7f163c4a11628f55a4df523b3ef60405160405180910390a46126f5600083836120ec565b5050565b6000808273ffffffffffffffffffffffffffffffffffffffff163b119050919050565b60606000821415612764576040518060400160405280600181526020017f300000000000000000000000000000000000000000000000000000000000000081525090506128c4565b600082905060005b6000821461279657808061277f90613c0d565b915050600a8261278f9190613a7d565b915061276c565b60008167ffffffffffffffff8111156127d8577f4e487b7100000000000000000000000000000000000000000000000000000000600052604160045260246000fd5b6040519080825280601f01601f19166020018201604052801561280a5781602001600182028036833780820191505090505b5090505b600085146128bd576001826128239190613aae565b9150600a856128329190613c56565b603061283e9190613a27565b60f81b81838151811061287a577f4e487b7100000000000000000000000000000000000000000000000000000000600052603260045260246000fd5b60200101907effffffffffffffffffffffffffffffffffffffffffffffffffffffffffffff1916908160001a905350600a856128b69190613a7d565b945061280e565b8093505050505b919050565b505050565b6008805490506009600083815260200190815260200160002081905550600881908060018154018082558091505060019003906000526020600020016000909190919091505550565b6000600161292484610c80565b61292e9190613aae565b9050600060076000848152602001908152602001600020549050818114612a13576000600660008673ffffffffffffffffffffffffffffffffffffffff1673ffffffffffffffffffffffffffffffffffffffff168152602001908152602001600020600084815260200190815260200160002054905080600660008773ffffffffffffffffffffffffffffffffffffffff1673ffffffffffffffffffffffffffffffffffffffff168152602001908152602001600020600084815260200190815260200160002081905550816007600083815260200190815260200160002081905550505b6007600084815260200190815260200160002060009055600660008573ffffffffffffffffffffffffffffffffffffffff1673ffffffffffffffffffffffffffffffffffffffff16815260200190815260200160002060008381526020019081526020016000206000905550505050565b60006001600880549050612a989190613aae565b9050600060096000848152602001908152602001600020549050600060088381548110612aee577f4e487b7100000000000000000000000000000000000000000000000000000000600052603260045260246000fd5b906000526020600020015490508060088381548110612b36577f4e487b7100000000000000000000000000000000000000000000000000000000600052603260045260246000fd5b906000526020600020018190555081600960008381526020019081526020016000208190555060096000858152602001908152602001600020600090556008805480612bab577f4e487b7100000000000000000000000000000000000000000000000000000000600052603160045260246000fd5b6001900381819060005260206000200160009055905550505050565b6000612bd283610c80565b905081600660008573ffffffffffffffffffffffffffffffffffffffff1673ffffffffffffffffffffffffffffffffffffffff168152602001908152602001600020600083815260200190815260200160002081905550806007600084815260200190815260200160002081905550505050565b6040518060a0016040528060008152602001600073ffffffffffffffffffffffffffffffffffffffff168152602001600073ffffffffffffffffffffffffffffffffffffffff168152602001600081526020016000151581525090565b828054612caf90613baa565b90600052602060002090601f016020900481019282612cd15760008555612d18565b82601f10612cea57805160ff1916838001178555612d18565b82800160010185558215612d18579182015b82811115612d17578251825591602001919060010190612cfc565b5b509050612d259190612d29565b5090565b5b80821115612d42576000816000905550600101612d2a565b5090565b6000612d59612d5484613982565b61395d565b905082815260208101848484011115612d7157600080fd5b612d7c848285613b68565b509392505050565b6000612d97612d92846139b3565b61395d565b905082815260208101848484011115612daf57600080fd5b612dba848285613b68565b509392505050565b600081359050612dd1816143af565b92915050565b600081359050612de6816143c6565b92915050565b600081359050612dfb816143dd565b92915050565b600081519050612e10816143dd565b92915050565b600082601f830112612e2757600080fd5b8135612e37848260208601612d46565b91505092915050565b600082601f830112612e5157600080fd5b8135612e61848260208601612d84565b91505092915050565b600081359050612e79816143f4565b92915050565b600060208284031215612e9157600080fd5b6000612e9f84828501612dc2565b91505092915050565b60008060408385031215612ebb57600080fd5b6000612ec985828601612dc2565b9250506020612eda85828601612dc2565b9150509250929050565b600080600060608486031215612ef957600080fd5b6000612f0786828701612dc2565b9350506020612f1886828701612dc2565b9250506040612f2986828701612e6a565b9150509250925092565b60008060008060808587031215612f4957600080fd5b6000612f5787828801612dc2565b9450506020612f6887828801612dc2565b9350506040612f7987828801612e6a565b925050606085013567ffffffffffffffff811115612f9657600080fd5b612fa287828801612e16565b91505092959194509250565b60008060408385031215612fc157600080fd5b6000612fcf85828601612dc2565b9250506020612fe085828601612dd7565b9150509250929050565b60008060408385031215612ffd57600080fd5b600061300b85828601612dc2565b925050602061301c85828601612e6a565b9150509250929050565b60006020828403121561303857600080fd5b600061304684828501612dec565b91505092915050565b60006020828403121561306157600080fd5b600061306f84828501612e01565b91505092915050565b6000806040838503121561308b57600080fd5b600083013567ffffffffffffffff8111156130a557600080fd5b6130b185828601612e40565b92505060206130c285828601612e6a565b9150509250929050565b6000602082840312156130de57600080fd5b60006130ec84828501612e6a565b91505092915050565b6130fe81613af4565b82525050565b61310d81613ae2565b82525050565b61311c81613b06565b82525050565b61312b81613b06565b82525050565b600061313c826139e4565b61314681856139fa565b9350613156818560208601613b77565b61315f81613d43565b840191505092915050565b6000613175826139ef565b61317f8185613a0b565b935061318f818560208601613b77565b61319881613d43565b840191505092915050565b60006131ae826139ef565b6131b88185613a1c565b93506131c8818560208601613b77565b80840191505092915050565b60006131e1602b83613a0b565b91506131ec82613d54565b604082019050919050565b6000613204603283613a0b565b915061320f82613da3565b604082019050919050565b6000613227602683613a0b565b915061323282613df2565b604082019050919050565b600061324a602583613a0b565b915061325582613e41565b604082019050919050565b600061326d601c83613a0b565b915061327882613e90565b602082019050919050565b6000613290602483613a0b565b915061329b82613eb9565b604082019050919050565b60006132b3601983613a0b565b91506132be82613f08565b602082019050919050565b60006132d6602c83613a0b565b91506132e182613f31565b604082019050919050565b60006132f9603883613a0b565b915061330482613f80565b604082019050919050565b600061331c602a83613a0b565b915061332782613fcf565b604082019050919050565b600061333f602983613a0b565b915061334a8261401e565b604082019050919050565b6000613362602e83613a0b565b915061336d8261406d565b604082019050919050565b6000613385602083613a0b565b9150613390826140bc565b602082019050919050565b60006133a8603183613a0b565b91506133b3826140e5565b604082019050919050565b60006133cb602a83613a0b565b91506133d682614134565b604082019050919050565b60006133ee602c83613a0b565b91506133f982614183565b604082019050919050565b6000613411602083613a0b565b915061341c826141d2565b602082019050919050565b6000613434602f83613a0b565b915061343f826141fb565b604082019050919050565b6000613457602183613a0b565b91506134628261424a565b604082019050919050565b600061347a603183613a0b565b915061348582614299565b604082019050919050565b600061349d602c83613a0b565b91506134a8826142e8565b604082019050919050565b60006134c0601c83613a0b565b91506134cb82614337565b602082019050919050565b60006134e3603883613a0b565b91506134ee82614360565b604082019050919050565b60a08201600082015161350f6000850182613561565b50602082015161352260208501826130f5565b50604082015161353560408501826130f5565b5060608201516135486060850182613561565b50608082015161355b6080850182613113565b50505050565b61356a81613b5e565b82525050565b61357981613b5e565b82525050565b600061358b82856131a3565b915061359782846131a3565b91508190509392505050565b60006020820190506135b86000830184613104565b92915050565b60006080820190506135d36000830187613104565b6135e06020830186613104565b6135ed6040830185613570565b81810360608301526135ff8184613131565b905095945050505050565b600060208201905061361f6000830184613122565b92915050565b6000602082019050818103600083015261363f818461316a565b905092915050565b60006020820190508181036000830152613660816131d4565b9050919050565b60006020820190508181036000830152613680816131f7565b9050919050565b600060208201905081810360008301526136a08161321a565b9050919050565b600060208201905081810360008301526136c08161323d565b9050919050565b600060208201905081810360008301526136e081613260565b9050919050565b6000602082019050818103600083015261370081613283565b9050919050565b60006020820190508181036000830152613720816132a6565b9050919050565b60006020820190508181036000830152613740816132c9565b9050919050565b60006020820190508181036000830152613760816132ec565b9050919050565b600060208201905081810360008301526137808161330f565b9050919050565b600060208201905081810360008301526137a081613332565b9050919050565b600060208201905081810360008301526137c081613355565b9050919050565b600060208201905081810360008301526137e081613378565b9050919050565b600060208201905081810360008301526138008161339b565b9050919050565b60006020820190508181036000830152613820816133be565b9050919050565b60006020820190508181036000830152613840816133e1565b9050919050565b6000602082019050818103600083015261386081613404565b9050919050565b6000602082019050818103600083015261388081613427565b9050919050565b600060208201905081810360008301526138a08161344a565b9050919050565b600060208201905081810360008301526138c08161346d565b9050919050565b600060208201905081810360008301526138e081613490565b9050919050565b60006020820190508181036000830152613900816134b3565b9050919050565b60006020820190508181036000830152613920816134d6565b9050919050565b600060a08201905061393c60008301846134f9565b92915050565b60006020820190506139576000830184613570565b92915050565b6000613967613978565b90506139738282613bdc565b919050565b6000604051905090565b600067ffffffffffffffff82111561399d5761399c613d14565b5b6139a682613d43565b9050602081019050919050565b600067ffffffffffffffff8211156139ce576139cd613d14565b5b6139d782613d43565b9050602081019050919050565b600081519050919050565b600081519050919050565b600082825260208201905092915050565b600082825260208201905092915050565b600081905092915050565b6000613a3282613b5e565b9150613a3d83613b5e565b9250827fffffffffffffffffffffffffffffffffffffffffffffffffffffffffffffffff03821115613a7257613a71613c87565b5b828201905092915050565b6000613a8882613b5e565b9150613a9383613b5e565b925082613aa357613aa2613cb6565b5b828204905092915050565b6000613ab982613b5e565b9150613ac483613b5e565b925082821015613ad757613ad6613c87565b5b828203905092915050565b6000613aed82613b3e565b9050919050565b6000613aff82613b3e565b9050919050565b60008115159050919050565b60007fffffffff0000000000000000000000000000000000000000000000000000000082169050919050565b600073ffffffffffffffffffffffffffffffffffffffff82169050919050565b6000819050919050565b82818337600083830152505050565b60005b83811015613b95578082015181840152602081019050613b7a565b83811115613ba4576000848401525b50505050565b60006002820490506001821680613bc257607f821691505b60208210811415613bd657613bd5613ce5565b5b50919050565b613be582613d43565b810181811067ffffffffffffffff82111715613c0457613c03613d14565b5b80604052505050565b6000613c1882613b5e565b91507fffffffffffffffffffffffffffffffffffffffffffffffffffffffffffffffff821415613c4b57613c4a613c87565b5b600182019050919050565b6000613c6182613b5e565b9150613c6c83613b5e565b925082613c7c57613c7b613cb6565b5b828206905092915050565b7f4e487b7100000000000000000000000000000000000000000000000000000000600052601160045260246000fd5b7f4e487b7100000000000000000000000000000000000000000000000000000000600052601260045260246000fd5b7f4e487b7100000000000000000000000000000000000000000000000000000000600052602260045260246000fd5b7f4e487b7100000000000000000000000000000000000000000000000000000000600052604160045260246000fd5b6000601f19601f8301169050919050565b7f455243373231456e756d657261626c653a206f776e657220696e646578206f7560008201527f74206f6620626f756e6473000000000000000000000000000000000000000000602082015250565b7f4552433732313a207472616e7366657220746f206e6f6e20455243373231526560008201527f63656976657220696d706c656d656e7465720000000000000000000000000000602082015250565b7f4f776e61626c653a206e6577206f776e657220697320746865207a65726f206160008201527f6464726573730000000000000000000000000000000000000000000000000000602082015250565b7f4552433732313a207472616e736665722066726f6d20696e636f72726563742060008201527f6f776e6572000000000000000000000000000000000000000000000000000000602082015250565b7f4552433732313a20746f6b656e20616c7265616479206d696e74656400000000600082015250565b7f4552433732313a207472616e7366657220746f20746865207a65726f2061646460008201527f7265737300000000000000000000000000000000000000000000000000000000602082015250565b7f4552433732313a20617070726f766520746f2063616c6c657200000000000000600082015250565b7f4552433732313a206f70657261746f7220717565727920666f72206e6f6e657860008201527f697374656e7420746f6b656e0000000000000000000000000000000000000000602082015250565b7f4552433732313a20617070726f76652063616c6c6572206973206e6f74206f7760008201527f6e6572206e6f7220617070726f76656420666f7220616c6c0000000000000000602082015250565b7f4552433732313a2062616c616e636520717565727920666f7220746865207a6560008201527f726f206164647265737300000000000000000000000000000000000000000000602082015250565b7f4552433732313a206f776e657220717565727920666f72206e6f6e657869737460008201527f656e7420746f6b656e0000000000000000000000000000000000000000000000602082015250565b7f45524337323155524953746f726167653a2055524920736574206f66206e6f6e60008201527f6578697374656e7420746f6b656e000000000000000000000000000000000000602082015250565b7f4552433732313a206d696e7420746f20746865207a65726f2061646472657373600082015250565b7f45524337323155524953746f726167653a2055524920717565727920666f722060008201527f6e6f6e6578697374656e7420746f6b656e000000000000000000000000000000602082015250565b7f4f6e6c79206974656d206f776e65722063616e20706572666f726d207468697360008201527f206f7065726174696f6e00000000000000000000000000000000000000000000602082015250565b7f4552433732313a20617070726f76656420717565727920666f72206e6f6e657860008201527f697374656e7420746f6b656e0000000000000000000000000000000000000000602082015250565b7f4f776e61626c653a2063616c6c6572206973206e6f7420746865206f776e6572600082015250565b7f4552433732314d657461646174613a2055524920717565727920666f72206e6f60008201527f6e6578697374656e7420746f6b656e0000000000000000000000000000000000602082015250565b7f4552433732313a20617070726f76616c20746f2063757272656e74206f776e6560008201527f7200000000000000000000000000000000000000000000000000000000000000602082015250565b7f4552433732313a207472616e736665722063616c6c6572206973206e6f74206f60008201527f776e6572206e6f7220617070726f766564000000000000000000000000000000602082015250565b7f455243373231456e756d657261626c653a20676c6f62616c20696e646578206f60008201527f7574206f6620626f756e64730000000000000000000000000000000000000000602082015250565b7f5072696365206d757374206265206174206c6561737420312077656900000000600082015250565b7f506c65617365207375626d6974207468652061736b696e67207072696365206960008201527f6e206f7264657220746f206275792074686973206c616e640000000000000000602082015250565b6143b881613ae2565b81146143c357600080fd5b50565b6143cf81613b06565b81146143da57600080fd5b50565b6143e681613b12565b81146143f157600080fd5b50565b6143fd81613b5e565b811461440857600080fd5b5056fea26469706673582212200089e68a4c1448fe9838e7c3ebefb1bbeebf7fe2c08d14a8986aa247117ce58c64736f6c63430008040033",
  "linkReferences": {},
  "deployedLinkReferences": {}
}